S01800006275696C642F6D6963617A2F6D61696E2E73726563E5
S11300000C9449000C9405060C940F060C941906E4
S11300100C9423060C942D060C9437060C94460875
S11300200C9441060C9468000C9468000C944F17CF
S11300300C94ED180C94CF050C94E5050C94710602
S11300400C94BE050C94BA0D0C9468000C946800D2
S11300500C9468000C9468000C9468000C9468007C
S11300600C94DA050C9468000C9468000C946800F5
S11300700C9468000C9468000C9468000C9468005C
S11300800C9468000C9468000C94680000081C1818
S1130090141011241FBECFEFD0E1DEBFCDBF11E09D
S11300A0A0E0B1E0E6E4F7E300E00BBF02C0079094
S11300B00D92AE30B107D9F715E1AEE0B1E001C061
S11300C01D92A43BB107E1F70E949A150C94A21B60
S11300D00C9400008FB7F894992708958FBF089562
S11300E0282F9FB7F894E82FFF27E357FE4E80810F
S11300F08F3F81F4E091B215E21771F40BC02093A5
S1130100A41504C0FF27E357FE4E20832093B215A5
S113011020E007C025E005C08091A4158F3F91F72A
S1130120EECF892F99278FBF822F99270895FC013D
S113013082819927582F442781819927482B592B4D
S1130140CA01892F9927869586958370907082308D
S1130150910559F08330910559F0892B19F420E069
S113016030E008C02CE93FEF05C022E030E002C0D7
S113017028E030E0CA0184E0989F812D992711245A
S11301808230910559F08330910559F0892B19F487
S113019080E090E008C08CE99FEF05C082E090E029
S11301A002C088E090E0280F391F2A5F3F4FCF013B
S11301B0820F931F0895282F9FB7F894662349F060
S11301C0E82FFF27E35DFD4E8081882311F021E0B5
S11301D006C0E22FFF27E35DFD4E608320E0892FF8
S11301E099278FBF822F99270895E82F8FB7F89406
S11301F0282F332790E0FF27E35DFD4E808186178B
S113020009F491E02FBF892F99270895882311F0CD
S11302106E9A08956E980895882311F06F9A089540
S11302206F98089580E00E940601BA9ABB98B99A23
S1130230B89A6C9A80E00E940C016B986A9881E0ED
S11302400E940601709A8DB18C7F8DB908950F9329
S11302501F93182F0FB7F89461E080E00E94DB0031
S1130260882371F510930301809106018823A9F571
S113027080911601823089F589E00CC00E94120138
S113028080911601882349F481E08093160110922D
S1130290A4118BE00E9470002AC08091B6118F3F98
S11302A031F5E0910501EE2311F11CC01092040117
S11302B004C0FF27EA54FE4E10821092050117C0B5
S11302C081E090E002C0880F991F1A95E2F720910F
S11302D01501282B209315010AC08091160188234B
S11302E0E1F6CCCF809104018F3F19F7DFCF802F47
S11302F099278FBF80E090E01F910F9108951F937D
S1130300182F81E00E9406011FB9779BFECF8FB1A1
S113031099271F9108958F929F92AF92BF92CF9287
S1130320DF92EF92FF920F931F93CF93DF938FB7D8
S1130330F8949927C090AD15D090AE1580902612F0
S113034090902712C091C811D091C91120915301E6
S113035030915401EAE0AE2EB12CAC0EBD1E2A152C
S11303603B0508F459018FBF7401EC0EFD1E860194
S11303700C0F1D1F14C0C114D10419F0F8018081A1
S113038001C080E00E947F018114910411F0F70103
S1130390808321960894E11CF11C0F5F1F4FC50157
S11303A00197C817D90738F381E00E940C019FB761
S11303B0F894C114D10431F0CC0EDD1EF601808115
S11303C08FB901C01FB8D093C911C093C811892F28
S11303D099278FBF80E090E0DF91CF911F910F911B
S11303E0FF90EF90DF90CF90BF90AF909F908F9051
S11303F008952FB7F8943327509354014093530131
S11304009093AE158093AD157093271260932612C6
S11304101092C9111092C8112FBF452B29F08FB12A
S11304200E948B01992708958AE00E94700080E061
S113043090E008958FB7F894992710922F128FBFE8
S11304400895DC01FC0124AD90E010C0E92FFF27E2
S1130450EE0FFF1FEA0FFB1F8181481731F48081E3
S1130460681719F481E090E008959F5F921771F77F
S113047080E090E00895CF93DF93CDB7DEB7A097E7
S11304800FB6F894DEBF0FBECDBFFC019E012F5FF7
S11304903F4FAE014B5D5F4F8CE1DA010D90AD0132
S11304A0D9010D929D018150C1F7E050F04F808138
S11304B0E050F041482F552725968EAD9FAD2597E6
S11304C098A38F8F23968EAD9FAD23979E8F8D8F8C
S11304D095E0440F551F9A95E1F74E0F5F1F9E015B
S11304E02F5F3F4F80E2D9010D909D01DA010D92FB
S11304F0AD018150C1F7E050F04F80818F5F808360
S1130500A0960FB6F894DEBF0FBECDBFDF91CF919A
S1130510089580E880936E011092A7111092A71598
S11305201092A3151092A3110895CF93DF93FC01A9
S113053015A6DC019E96ED011B821A82198280E8C1
S113054086A7DF91CF9108952F923F924F925F92A9
S11305506F927F928F929F92AF92BF92CF92DF92CF
S1130560EF92FF920F931F93CF93DF93CDB7DEB734
S113057029970FB6F894DEBF0FBECDBF6FB769835E
S1130580F8942090AD113090AE114090AF1150907E
S1130590B011662477248824EEE4AE2E73E8B72ED7
S11305A0CC24DD24EE24FF2400E010E0222D332DA2
S11305B0442D552D662D772D882D90E00E947B19B2
S11305C02A833B834C835D836E837F8388879987EB
S11305D0822E932EA42EB52E2401350100E20E9412
S11305E0791AA22EB32EC42ED52EA30192015695AC
S11305F04795379527952A0D3B1D4C1D5D1D57FFCB
S113060005C05F772F5F3F4F4F4F5F4F2093AD1172
S11306103093AE114093AF115093B011E9818E2FF6
S113062099278FBFCA01B90129960FB6F894DEBF86
S11306300FBECDBFDF91CF911F910F91FF90EF902F
S1130640DF90CF90BF90AF909F908F907F906F90EE
S11306505F904F903F902F9008958FB7F8946091DA
S1130660CC117091CD112CB53DB506B602FE04C077
S11306706F5F7F4F2CB53DB599278FBF882799278A
S1130680CB017727662744275527622B732B842BAE
S1130690952B0895EF92FF920F931F930E942D03C1
S11306A07B018C012091B7113091B8114091B9119F
S11306B05091BA118091B2119091B311A091B411DB
S11306C0B091B511820F931FA41FB51FE216F30654
S11306D00407150730F082179307A407B50758F0ED
S11306E005C082179307A407B507E0F5E816F906D5
S11306F00A071B07B8F59C01AD012E193F09400BF1
S1130700510B213060E8360760E0460760E0560789
S113071068F180E090E8A0E0B0E0E80EF91E0A1F5E
S11307201B1FE092B711F092B8110093B911109306
S1130730BA1180E090E8AFEFBFEFE80EF91E0A1F90
S11307401B1F20503048404050402093B21130933A
S1130750B3114093B4115093B51120E030E840E058
S113076050E014C020E030E040E050E08093B71146
S11307709093B811A093B911B093BA111092B21119
S11307801092B3111092B4111092B511A901B701CE
S11307902CB53DB5C9018E199F0903968417950799
S11307A020F0B9016D5F7F4F02C0640F751F6115A2
S11307B0710511F461E070E0615070407BBD6ABD69
S11307C080E186BF87B7806187BF1F910F91FF903B
S11307D0EF9008950F931F930FB7F8941127609328
S11307E0B7117093B8118093B9119093BA112093F3
S11307F0B2113093B3114093B4115093B5110E94C8
S11308004A030FBF1F910F91089597B79F7D97BF1C
S113081090E296BF882319F08EB5806402C08EB52D
S11308208F7B8EBD87B7806287BF80E090E008959C
S11308307FB7F89462B720915601309157014091E7
S113084058015091590106B601FE0FC081B792B705
S1130850280F311D411D511D2F5F3F4F4F4F5F4FDB
S1130860290F311D411D511D04C0260F311D411D8D
S1130870511D872F99278FBFCA01B90108958F92FF
S11308809F92AF92BF92CF92DF92EF92FF920F931B
S11308901F93CF93DF93CDB7DEB76A970FB6F89463
S11308A0DEBF0FBECDBF5B016C0188249924EBE051
S11308B0F2E1608561FF76C02081318142815381FC
S11308C0E480F58006811781D601C501821B930B54
S11308D0A40BB50B8E159F05A007B10708F462C0E1
S11308E060FF03C06D7F608708C02E0D3F1D401F51
S11308F0511F2083318342835383882009F05BC0D6
S11309000E9418046B017C0100E010E06AE170E0D1
S113091042C0832F9927869FF001879FF00D969FF1
S1130920F00D1124DE011196E25CFD4E8AE1019086
S11309300D928150E1F78B819C81AD81BE818857F6
S11309409C4EAF4FBF4F8C159D05AE05BF05A0F063
S113095020C0469FC001479F900D569F900D1124C3
S1130960DC01A25CBD4EFC01E85AFD4E8AE1019017
S11309700D928150E1F73F5F432F552720914A158F
S1130980822F99270197481759071CF32150209368
S11309904A150F5F1F4F302F80914A15081708F42E
S11309A0B8CF09C00894811C911C399683E088163D
S11309B0910409F07ECF82E00E9470006A960FB61F
S11309C0F894DEBF0FBECDBFDF91CF911F910F9181
S11309D0FF90EF90DF90CF90BF90AF909F908F905B
S11309E00895DF92EF92FF920F931F938FB7F894BD
S11309F0282F3327D22E91B782B746B7981711F014
S1130A0041FF02C02FBF6AC08091C7118823E1F162
S1130A100E941804E0902912F0902A1200912B12DF
S1130A2010912C1220916A0130916B0140916C015C
S1130A3050916D016E197F09800B910B621773073A
S1130A408407950720F01092C71171E01EC02E0D87
S1130A503F1D401F511F8091560190915701A09155
S1130A605801B0915901281B390B4A0B5B0B273EE7
S1130A7031054105510540F4822F223010F070E019
S1130A8005C070E082E002C070E086EE682F61501D
S1130A9000B601FCFDCF82B7681709F46F5F20919F
S1130AA05601309157014091580150915901DA0192
S1130AB0C9010196A11DB11D860F911DA11DB11D76
S1130AC082179307A407B50710F4622F609561BFDE
S1130AD0DFBE772319F081E00E9470001F910F910F
S1130AE0FF90EF90DF900895AFB7F894BB27E1E053
S1130AF0E093C7116093291270932A1280932B12EA
S1130B0090932C1220936A0130936B0140936C01F3
S1130B1050936D01AFBF0E94F1040895AF92BF924C
S1130B20CF92DF92EF92FF920F931F93CF93DF93B5
S1130B30CDB7DEB728970FB6F894DEBF0FBECDBF92
S1130B4020E070E0E0910001F091010132E14DE616
S1130B505CE46FE4809101019E2F28960FB6F8940F
S1130B60DEBF0FBECDBFDF91CF911F910F91FF90DC
S1130B70EF90DF90CF90BF90AF9008951F920F92A7
S1130B800FB60F9211248F9383B783BF00B600FC76
S1130B90FDCF8F910F900FBE0F901F9018957894F2
S1130BA01F920F920FB60F9211240F900FBE0F9049
S1130BB01F90189578941F920F920FB60F921124DC
S1130BC00F900FBE0F901F90189578941F920F925C
S1130BD00FB60F9211242F933F938F939F932FB7A8
S1130BE0F89433278091CC119091CD110196909374
S1130BF0CD118093CC112FBF9F918F913F912F9155
S1130C000F900FBE0F901F9018951F920F920FB662
S1130C100F9211240F900FBE0F901F9018951F92E2
S1130C200F920FB60F9211240F900FBE0F901F90CA
S1130C3018951F920F920FB60F9211240F900FBEAA
S1130C400F901F9018951F920F920FB60F921124B8
S1130C500F900FBE0F901F9018951F920F920FB612
S1130C600F9211240F900FBE0F901F9018951F9292
S1130C700F920FB60F9211240F900FBE0F901F907A
S1130C8018951F920F920FB60F9211240F900FBE5A
S1130C900F901F901895AF92BF92CF92DF92EF9270
S1130CA0FF920F931F93FC016383672F772762835F
S1130CB04183452F552740832683E582EF2CFF246B
S1130CC0E4820783BB24A501B60108960E94921B07
S1130CD01F910F91FF90EF90DF90CF90BF90AF9056
S1130CE008951F920F920FB60F9211242F933F93E2
S1130CF04F935F936F937F938F939F93AF93BF9320
S1130D00EF93FF9383B783BF00B600FCFDCF81B799
S1130D1099270196AA27BB272091560130915701A4
S1130D204091580150915901280F391F4A1F5B1FE8
S1130D302093560130935701409358015093590121
S1130D4078940E94F104FF91EF91BF91AF919F912C
S1130D508F917F916F915F914F913F912F910F9060
S1130D600FBE0F901F9018950F931F93CF93DF938F
S1130D70182F8FB7F894C82FDD270C2F61E080E07F
S1130D800E94DB00882321F0CFBF85E090E024C0DF
S1130D90809106018823A1F480911601823081F4A8
S1130DA009C082E080931601109206010E9412018C
S1130DB0B89AC0981093030180E00FBF99270CC024
S1130DC080911601882369F38FB7F89499271092BC
S1130DD02D128FBF81E0F1CFDF91CF911F910F9141
S1130DE008951F9383E00E94B4069927182F88233F
S1130DF019F083E00E942701812F99271F910895FC
S1130E00EF920F931F93AE2D99E0899FF001112467
S1130E10E55FFD4E408351836283738304831583AE
S1130E2026833783A17080858E7F8A2B826080879A
S1130E3082E00E9470001F910F91EF90089561E08D
S1130E4081E00E94DB008823E9F48FB7F894282F0F
S1130E5033278091120190911301892B11F02FBF38
S1130E6020C081E090E090931301809312012FBF82
S1130E70DD9A0E942D0324E130E040E050E00E941E
S1130E80EA030FC062E081E00E94F500882319F0B4
S1130E9089E090E0089561E081E00E94F5008823F4
S1130EA019F080E090E0089585E090E00895CF92F5
S1130EB0DF92EF92FF920F931F93CF93DF938C01F6
S1130EC0F62E6A01E22E8FB7F894C82FDD2760E072
S1130ED080E00E94F500882321F0CFBF80E090E0FD
S1130EE01EC0CFBF0F0D111D802F80680E947F018F
S1130EF0F82E16950795802F807C0E947F010E2D79
S1130F000AC0EE2DFF27E01BF109EC0DFD1D8081C9
S1130F100E947F0101500023A1F78F2D9927DF91B3
S1130F20CF911F910F91FF90EF90DF90CF90089594
S1130F30CF93DF93CDB7DEB72C970FB6F894DEBF0F
S1130F400FBECDBF8FB7F894282FAE014F5F5F4F10
S1130F50DA01E3E3F2E188E001900D928150E1F7D8
S1130F608091A8119091A9118987892F99278A873F
S1130F708091BB119091BC118B87892F99278C8705
S1130F802FBF2CE060E080E691E00E9457072C968A
S1130F900FB6F894DEBF0FBECDBFDF91CF91089599
S1130FA01F93CF93DF93182F8FB7F894C82FDD27A3
S1130FB060E080E00E94F500882321F0CFBF80E04C
S1130FC090E005C0CFBF812F0E947F019927DF9158
S1130FD0CF911F910895EF92FF920F931F93CF9398
S1130FE0DF93182F7B01042F8FB7F894C82FDD27C8
S1130FF060E080E00E94F500882321F0CFBF80E00C
S113100090E014C0CFBF1064812F99279093C01132
S11310108093BF110E947F01182F402F5527B701DD
S113102080E090E00E94F901812F9927DF91CF9110
S11310301F910F91FF90EF900895C09860911D014A
S113104070911E0141E08FE30E94EB07089582E056
S113105090E090939E1180939D1181E08093A7115D
S113106020E030E080910301843011F421E030E08D
S1131070232B29F484E00E94B406882319F40E94E7
S11310801D08089584E00E94270108951F920F927D
S11310900FB60F9211242F933F934F935F936F9347
S11310A07F938F939F93AF93BF93EF93FF9380911D
S11310B09D1190919E11019749F482E090E09093E4
S11310C09E1180939D110E94270805C08091A31151
S11310D08F5F8093A311FF91EF91BF91AF919F9187
S11310E08F917F916F915F914F913F912F910F90CD
S11310F00FBE0F901F9018951F93809115018823A0
S113110009F04BC0109103011F3F09F046C060E095
S11311100E94F500882309F440C081E080933C12CA
S113112080918C118823E1F110923C1285E090E0CB
S113113045C0923069F5C09A8091040120E030E006
S11311408F3F11F421E030E0232BE9F410930601E2
S11311508F3F19F42FEF30E00DC0282F3327F9010A
S1131160EA54FE4E8081809304018F3F11F4109362
S1131170050110832093A41181E0809316018BE074
S11311800E94700005C0109306011092160111C050
S113119080911601882369F00FC081E090E00EC0B1
S11311A08091060190911601882319F2923021F062
S11311B0EFCF80E00E94060180E090E01F91089547
S11311C01F93CF93DF939FB7F894C92FDD271C2F6C
S11311D090910301981721F0CFBF81E090E03AC0CD
S11311E08FEF80930301309115013323F1F48FB70E
S11311F0F894992710922D128FBF0E947C08CFBFBC
S113120011C02093030181E090E002C0880F991F70
S11312104A95E2F7809538233093150189E00E94BE
S113122070001FBF80E090E015C080E065E0E32F10
S1131230FF270E94FC1A292F492F5527CF01042E7E
S113124002C0959587950A94E2F780FDDACF822F44
S11312508F5FEFCFDF91CF911F9108951F93CF93AD
S1131260DF938FB7F894C82FDD271C2F80919D1131
S113127090919E11892B29F484E00E94E008CFBF4D
S11312801EC01092A7118091A311882311F0B79961
S113129004C00E9908C0882319F081508093A311CB
S11312A00E9427080BC081E090E090939E118093E8
S11312B09D111092A31184E00E94E0081FBFDF91EA
S11312C0CF911F9108950E948902C09AC09888E026
S11312D00E94D00788E00E94D007C09A84E00E9450
S11312E0E0080E942E090895FF920F931F93CF9355
S11312F0DF93F82E8B018FB7F894C82FDD2760E0B9
S113130080E00E94F500882321F0CFBF80E090E0C8
S11313100CC0CFBF8F2D0E947F01812F99270E947F
S11313207F01802F0E947F019927DF91CF911F9128
S11313300F91FF9008951F931FB7F8948091A21105
S1131340882319F460E070E009C060E08091AC1576
S1131350882309F461E081E0682777278091AA1146
S1131360882319F480E090E00AC090E08091321262
S1131370882309F491E081E09827892F9927762F13
S11313806627770F770F770FE4E0880F991FEA95A8
S1131390E1F7826E9262682B792B81E10E947409D5
S11313A0812F99278FBF1F9108958FB7F89499279C
S11313B060913B128FBF85E0689FB0011124625D8C
S11313C07E4F706488E10E9474090895EF92FF9241
S11313D01F93CF93DF93E090AB11F090AC11F70122
S11313E082A59927182F882309F41FE1C0988091BA
S11313F0A111811749F0612F77276F717070606EAA
S1131400706885E10E9474091093A111F70110819D
S11314108FB7F894C82FDD2760E080E00E94F500C4
S1131420882311F0CFBF12C0CFBF8EE390E090931A
S1131430C0118093BF118EE30E947F011150412F90
S1131440552760E070E0C7010E94F901DF91CF9158
S11314501F91FF90EF9008950F931F93CF93DF9305
S1131460EC010FB7F89411270E949700FC018FE359
S113147080830FBF1092AA151092A91561E082E033
S11314800E94DB00882319F085E090E072C080910F
S11314903D128F5F80933D1281508B838FB7F894F8
S11314A0082F112762E081E00E94F500882329F4C7
S11314B00FBF0E941A0281E05BC08FB7F89499278E
S11314C024E020932E128FBFD093C611C093C51170
S11314D00FBFFE013196818129819927982F882792
S11314E03327822B932B80729C7C8983892F9927A5
S11314F081832981982F882733272164822B932B7A
S11315008983892F992781831CA618A619A619AA4D
S113151018AA1FA680E88EA761E06093311240915B
S1131520C5115091C6118FB7F894282F3327809195
S11315301701909118018830910511F0019711F06D
S11315402FBF15C082E090E090931801809317019B
S11315506093B3155093AC114093AB1110925501A5
S11315602FBF0E94F106882311F40E94E60980E04F
S11315709927DF91CF911F910F910895CF93DF9316
S1131580DA01422F2D3118F082E090E05EC0ED01C7
S11315908B876E83872F99278F832FB7F8943327F0
S11315A08091A8119091A9112FBFFD018483892FE7
S11315B0992785832FB7F894332780910701909159
S11315C008012FBF8887892F9927898731968181C0
S11315D029819927982F8827332720643868822BFC
S11315E0932B8983892F99278183435F4C934D5093
S11315F080910A01882359F010920A01642FCD01C9
S11316000E942C0A9927282F8823A9F417C0842F15
S113161099279093C4118093C311B0931C01A09394
S11316201B018DE00E94700080910A01882349F417
S113163089E090E00AC08FEF80930A01822F9927F6
S113164004C01092B11180E090E0DF91CF91089531
S11316501F93CF93DF93182FEB01E82FFF27EE0F93
S1131660FF1FE653FE4E1182108210920D01E0918D
S1131670CA11F091CB11309721F08091A81580FF09
S113168012C081E080930D0103C08FE00E947000BE
S11316901123D9F4CF51D140C1F41092100180E04C
S11316A00E94700012C020812D5033276781772754
S11316B0762F662786819927682B792BAF0183853E
S11316C00E94BE0A882321F3E0CFDF91CF911F91BE
S11316D008959B0180910D01882349F46091CA11FA
S11316E07091CB116217730711F40E94280B0895AF
S11316F01F93182F81E090E09093180180931701B5
S113170010928C110E947C088FB7F894992710933B
S113171011018FBF85E00E9470001F910895CF9240
S1131720DF92EF92FF920F931F93CFB6F894DD24CC
S11317300E94A402DC01CB0166E470E00E94081B55
S11317401BE0E12EF12CE80EF91EF092B015E092A8
S1131750AF150E942D0300271127A80197010E94AD
S1131760EA03CFBE1F910F91FF90EF90DF90CF90CF
S113177008951F93CF93DF938FB7F894C82FDD2775
S11317801C2F80911701909118010897C9F489E0E2
S11317900E94D00783E00E94E008C09A81E090E0B4
S11317A090931801809317018FB7F894992723E039
S11317B0209311018FBF85E00E947000CFBF30C01D
S11317C0C0988091B315882311F085E001C084E0AE
S11317D00E94D00783FD09C080E00E94D00783FFE8
S11317E004C085E090E020E003C083E090E021E0C5
S11317F09093180180931701C09A1FBF222341F0D0
S11318001092550183E00E94E0080E948F0B08C0EB
S11318100E942D0320E431E040E050E00E94EA03FE
S1131820DF91CF911F910895EF92FF920F931F9331
S1131830CF93DF938B018091BF119091C01186FFEC
S113184040C18F7B8F3309F08EC1C0911D01D091AF
S11318501E01588150939F1180919D1190919E116A
S11318608530910509F443C08630910509F48AC096
S1131870029709F01FC185E090E090939E11809338
S11318809D1140916E01852F99270196242F3327AE
S1131890281739074CF1B79906C00E9904C0451BA7
S11318A0415040936E0140919F114A32E8F4442321
S11318B0A1F0BE016F5F7F4F483018F047E050E061
S11318C007C086E090E090939E1180939D11552768
S11318D080E090E00E94F90146C11092A711C09ADD
S11318E084E00E94E008E3C00E9463093CC186E0F2
S11318F090E090939E1180939D118091AA1188236A
S113190009F439C0809132128823A9F5898185FFB1
S113191032C08F814E812FB7F89433276091BB1169
S11319207091BC112FBF9927982F88275527842B96
S1131930952B8617970759F08F812E819927982F19
S113194088273327822B932B8F5F9F4FA1F48981A4
S11319508770813081F4C09AC0988AE00E94D007D1
S1131960C09AC09840919F1147502896BE018FE3BA
S11319700E94EB07F8C040919F11475055272896C5
S1131980BE01A6CFC09A8091A311882339F484E0C4
S11319900E94E0088091A311882311F0B7990AC02E
S11319A00E9B08C09091A315992321F080919F115B
S11319B08B3038F480911D0190911E010E94950294
S11319C03DC0913001F5E091A715FF27EE0FFF1FF1
S11319D0EE0FFF1FE15BFA4E20813181428153817A
S11319E0E0911D01F0911E0121ABBB27A52F942F7F
S11319F0832F80ABCA01AA27BB2787A7252F3327AC
S1131A004427552726A78091A7159927019668E0B2
S1131A1070E00E941C1B8093A7158091A315815030
S1131A208093A315882351F080911D0190911E018C
S1131A300E9495021092A7151092A31580919F11F0
S1131A40FE01E80FF11D808187FF31C0012B79F180
S1131A5069816770E0911D01F0911E01623019F5F2
S1131A60A091AB11B091AC11109709F180911701BD
S1131A70909118010797D9F4ED019B818381981700
S1131A80B1F487B78F7E87BF908181E08CA7E90F7F
S1131A90F11D8291319688A780818F7789A780E094
S1131AA00E94780B04C0613011F48CE02AC00E94BB
S1131AB02E0959C01092A711C09A84E00E94E00830
S1131AC052C08E3309F04FC0C09A80911701909193
S1131AD018010897C9F4C09889E00E94D007C09AF9
S1131AE083E00E94E00881E090E0909318018093E5
S1131AF017018FB7F894992723E0209311018FBF22
S1131B0085E00E9470002FC08091B315882349F4AA
S1131B1084E090E090931801809317010E94B90B20
S1131B2022C083E00E94E00883E090E090931801D3
S1131B30809317010E94A402DC01CB0166E371E0EB
S1131B400E94081B0BE0E02EF12CE80EF91EF09227
S1131B506901E09268010E942D0300271127A80162
S1131B6097010E94EA03DF91CF911F910F91FF909B
S1131B70EF9008951F920F920FB60F9211242F9396
S1131B803F934F935F936F937F938F939F93AF9301
S1131B90BF93EF93FF932FB1E0912612F091271298
S1131BA0309739F08091C8119091C911E80FF91F4D
S1131BB020838091C8119091C91101969093C91105
S1131BC08093C81180E00E940C0140915301509110
S1131BD054018091C8119091C9118417950718F484
S1131BE00E948B011CC06091261270912712809173
S1131BF0AD159091AE1510922712109226121092E4
S1131C00AE151092AD15109254011092530110921A
S1131C10C9111092C8112FB120E00E94140CFF9139
S1131C20EF91BF91AF919F918F917F916F915F9150
S1131C304F913F912F910F900FBE0F901F901895C9
S1131C408F929F92AF92BF92CF92DF92EF92FF92C8
S1131C500F931F93CF93DF93CDB7DEB7CE59D04008
S1131C600FB6F894DEBF0FBECDBF873009F454C25F
S1131C70883098F4833009F45FC1843038F48130BB
S1131C8009F4D5C0823008F005C127C0853009F4B5
S1131C90D7C1863008F025C2CDC18B3009F45CC3AE
S1131CA08C3038F4893009F479C28A3008F031C3B1
S1131CB03AC28D3009F4A9C68D3008F461C38E3060
S1131CC021F08F3009F005C7EDC68091A81588234F
S1131CD009F4FFC640E011E0C1C680918B1188234E
S1131CE009F4F7C680911001882309F0F2C6DE01D9
S1131CF0A158BF4FEBE8F1E080E201900D928150D2
S1131D00E1F74BE851E060E070E00CC06F5F7F4F9B
S1131D10DA01FA01B09680E201900D928150E1F768
S1131D20405E5F4F20918B11822F9927019768178E
S1131D30790764F3215020938B11DE01DF96FE01B5
S1131D40E158FF4F80E201900D928150E1F7DE01EE
S1131D50A15ABF4FFE01FF9680E201900D9281507F
S1131D60E1F7DE01A15ABF4FFD01068D178D809169
S1131D701001882309F050C080910201882309F4DE
S1131D804BC04BE251E09A018CE10D90F9010192B4
S1131D909F018150D1F7809131019927282F882301
S1131DA0D9F12150FA0126834FE151E00093250136
S1131DB0612F77276093260186E080932A01809122
S1131DC0CA119091CB11892B39F55093CB114093C3
S1131DD0CA1189E280931F0180910D018823C9F003
S1131DE0762F6627802F9927682B792B10920D0167
S1131DF02CE186E00E94BE0A9927282F882349F007
S1131E0081E080930D011092CB111092CA1122230C
S1131E1019F481E08093100180918B11882309F4D7
S1131E2058C680911001882309F053C6B4C180912B
S1131E30A011882361F520914B1530914C154091E8
S1131E404D1550914E15EFB7F894FF276091291264
S1131E5070912A1280912B1290912C12E0906A01B9
S1131E60F0906B0100916C0110916D016E0D7F1D5E
S1131E70801F911FEFBF20934B1530934C15409357
S1131E804D1550934E151092A0110E9474050E9496
S1131E9018043FC00E9418045B016C018FB7F894CA
S1131EA099271092C7118FBF2FEF3FEF4FEF5FE7D6
S1131EB060E0EBE0F2E1808581FF1CC080819181CC
S1131EC0A281B38186017501E81AF90A0A0B1B0B7A
S1131ED0D801C701E480F58006811781E81AF90A60
S1131EE00A0B1B0BE216F306040715071CF4A801E2
S1131EF0970161E0399602E1E632F007E1F66623E4
S1131F0009F4E7C512161306140615062CF0C601CB
S1131F10B5010E943F04DDC520934B1530934C1549
S1131F2040934D1550934E1581E08093A011C60146
S1131F30B5010E947405CDC50FB7F894112781E04F
S1131F400E94050461E0E62EF12CF0921801E09263
S1131F5017011092190110928C111092A1110FBF48
S1131F600FB7F89411270E948902F0929E11E09213
S1131F709D111092A71189B78F7B89BF80E488BF18
S1131F808AB780628ABF8AB78F7E8ABF89B7806426
S1131F9089BF0FBF8FB7F894082F112780911201C2
S1131FA090911301049719F483E00E94D0070FBFA6
S1131FB00FB7F8941127C09A80E00E94E0080FBF81
S1131FC08FB7F894992722E020932E128FBF0E9496
S1131FD0A4027B018C010E9418045B016C01C701FF
S1131FE068EC70E00E94081B8B529B4EAA27BB270B
S1131FF0EE248C019D01B601A50180E00E9400073A
S11320000E94A4027B018C010E9418045B016C01F4
S1132010C70168EC70E00E94081B8B529B4EAA27F4
S1132020BB27EE248C019D01B601A50181E00E942D
S113203000074FC58FB7F894992710922E1271C0DC
S11320408FB7F8949927F09011018FBF63E081E076
S11320500E94F500882359F10FB7F89411271092C4
S113206018011092170187B78F7E87BF87B78F7DBE
S113207087BF83E00E94E008C09A0FBF0FB7F894AF
S1132080112710929E1110929D110E948902C09AEC
S113209089B78F7B89BF0FBF109213011092120171
S11320A0DE98DD98DE9A84E00E94700007C08FB746
S11320B0F894992722E020932E128FBF0091C51126
S11320C01091C6110E941A028091A9159091AA1527
S11320D0892B09F0FEC48FEF80930A014F2DB801BC
S11320E0B4C48FB7F894282F3327122F8091B115D9
S11320F0882309F581E08093B115809112019091B4
S11321001301049721F481E00E94270103C087E0B2
S11321100E9470001FBFDDC48FB7F89499271092F6
S1132120B1158FBFD6C48FB7F894282F3327809169
S11321301401882311F02FBFCCC42FBF80B399277B
S113214056E0969587955A95E1F7182F117090915E
S1132150BD118091BE118917D9F01917C9F484E013
S113216090E090931301809312018FB7F89499270C
S113217021E0209314018FBF60E070E08DE10E94A4
S113218074090E949807C09AC09883E00E94700066
S11321901093BE1188E00E9470009BC48FB7F8941E
S11321A09927109103018FBF123009F465C01330D1
S11321B030F4112359F0113009F08BC448C01330A6
S11321C009F474C0143009F084C4A0C0C0988FB757
S11321D0F894082F1127809112019091130102970E
S11321E0A1F583E090E0909313018093120168E1DC
S11321F070E08DE10E94740981E08093BD1110921A
S1132200140180B3992746E0969587954A95E1F79E
S1132210817090708093BE1188E00E94700081E00C
S11322200E94D0076FE772E08CE10E9474090E945B
S1132230D5090E949B0966E57AE287E10E94740948
S11322406FEF70E885E10E9474090FBF42C4C09823
S113225086E00E94D0070E94D5090E949B090E9433
S11322609807C09AC09883E00E94D007C09A81E082
S11322700E94E00887E08FCFC0988FB7F894082FAA
S1132280112760E080E00E94F500882311F00FBF61
S11322900AC00FBF83E50E947F0180E00E947F0196
S11322A080E00E947F01C09A82E02DC08FB7F8942D
S11322B09927209117018FBF243039F0283041F03D
S11322C0223001F50E94E60904C40E94B90B01C43E
S11322D0C09889E00E94D007C09A83E00E94E00879
S11322E08FB7F894992721E030E0309318012093B8
S11322F017018FBF8FB7F8949927109311018FBFDF
S113230085E049CF83E00E94E008E3C30E941D08F2
S1132310E0C30FB7F8941127409153015091540131
S113232060912612709127128091AD159091AE158F
S113233010922712109226121092AE151092AD151B
S113234010925401109253011092C9111092C811A5
S113235020E00E94140C79CF2FB7F8943327809192
S1132360A4118093060182E0809316012FBF80910F
S11323700601882309F0ADC3B89AC09889E00BCF51
S1132380A0911D01B0911E01FC909D012F0D311DE6
S1132390F9018081881F8827881FFD0183A7F9011F
S11323A080818F77FD0181A721503040F901808120
S11323B0FD0180A7A0911D01B0911E01FD01328194
S11323C08FB7F89499272091A2118FBF222309F483
S11323D090C0832F992796958795969587958370B6
S11323E090708230910541F5878146812FB7F8942A
S11323F033276091BB117091BC112FBF9927982F7F
S113240088275527842B952B8617970719F481E085
S113241090E06CC0FD018781268140E050E099275F
S1132420982F88273327822B932B8F5F9F4F11F48C
S113243041E050E0CA015AC0039709F0DDC29E0191
S11324402D5F3F4F43E352E188E0FA010190AF0171
S1132450F90101929F018150C1F79E012D5D3F4F0B
S1132460AE014D5F5F4F88E0FA010190AF01F901C1
S113247001929F018150C1F79E01255F3F4FAE013C
S11324804D5D5F4F88E0FA010190AF01F9010192BF
S11324909F018150C1F79E012D5E3F4FAE01455F04
S11324A05F4F88E0FA010190AF01F90101929F01A9
S11324B08150C1F79E01255E3F4FAE014D5E5F4FD7
S11324C088E0FA010190AF01F90101929F01815066
S11324D0C1F748E050E0BE01655E7F4FCD0106962E
S11324E00E94851B892B09F087C203C0882309F445
S11324F083C2FCE0FF1508F07FC280901D0190901C
S11325001E01F4012281822F992716E09695879562
S11325101A95E1F7039719F468E070E002C062E0ED
S113252070E0822F99279695879596958795837065
S11325309070039719F488E090E002C082E090E084
S113254006E010E0800E911E40E050E020E030E014
S1132550F401E80FF91F8AEF9FEF880E991E05C05A
S11325608191480F511D2F5F3F4F26173707C4F342
S1132570F40163818FEF8093AB158FB7F894782FB4
S113258020E030E0ECE5F1E080819181841795074B
S113259031F48281861709F49CC12093AB152F5F17
S11325A03F4F33962430310579F77FBF9091AB15B7
S11325B03FB7F8949F3F21F080911A01891799F44D
S11325C020911A01822F9927FC01EE0FFF1FE80FBB
S11325D0F91FE45AFE4F5183408362832F5F2370B7
S11325E020931A010CC0892F9927FC01EE0FFF1FBD
S11325F0E80FF91FE45AFE4F518340836283832F0F
S113260099278FBF0FB7F8941127C4010E94970030
S1132610FC0190810FBFF40183A5882309F4E8C16C
S11326209F3309F0E5C1878146812FB7F89433279A
S113263060910701709108012FBF9927982F88276F
S11326405527842B952B8617970761F08781268160
S11326509927982F88273327822B932B8F5F9F4F9F
S113266009F0C6C1F4018385863009F0C1C18091A7
S11326700201882309F4BCC1F9E2FF1609F0B8C1CC
S1132680F401878580935A01818980935B01408995
S11326908189668527855527542F44279927482BF8
S11326A0592B7727762F66273327622B732B8EECD3
S11326B091E10E942102882309F09AC160910001EE
S11326C070910101F401848525859927982F882725
S11326D03327822B932B6817790709F0FCC0838971
S11326E09927882321F0833609F06EC149C0E09010
S11326F00E01F0900F010894E11CF11CF0920F01FF
S1132700E0920E010894E108F108F40146858785FA
S113271094012C5E3F4F5527542F44279927482B6B
S1132720592BB4E1AB2E690101E010E02FE030E059
S11327308FE691E00E944B068FEF9FEF9F938F935C
S1132740809171019927982F88272091720133274E
S1132750822B932B9F938F930DB71EB70C51104070
S11327600FB6F8941EBF0FBE0DBFEDB7FEB731967E
S1132770AFE6B1E08CE10D9001928150E1F714C114
S1132780D4015496F4018489833609F01DC18589E6
S11327908D3609F019C18689843609F015C18789F7
S11327A0803209F011C19401285E3F4F808D80373B
S11327B009F086C1818D893609F082C1828D8E36F9
S11327C009F07EC1838D873609F07AC1848D803209
S11327D009F076C1858D803308F472C18A3308F01C
S11327E06FC1868D803209F06BC19E01255D3F4F1C
S11327F0A401415E5F4F89E0FA010190AF01F90144
S113280001929F018150C1F7FD0181858983E09088
S11328100E01F0900F010894E11CF11CF0920F01DD
S1132820E0920E010894E108F10849815A8140536D
S1132830504050706091000170910101F4E1AF2E9D
S1132840EBE2CE2ED12CCC0EDD1E00E010E02FE00A
S113285030E08FE691E00E944B0680916F0199274A
S1132860982F8827209170013327822B932B9F93D5
S11328708F93809171019927982F88272091720155
S11328803327822B932B9F938F930DB71EB70C5135
S113289010400FB6F8941EBF0FBE0DBFEDB7FEB7C4
S11328A03196AFE6B1E08CE10D9001928150E1F7F1
S11328B07BC0FD018581893609F086C086818C360E
S11328C009F082C087818C3609F07EC01092020123
S11328D07BC07FBF8DC0F401868527859927B82FDB
S11328E0AA273327A22BB32B6A177B0709F480C0CE
S11328F0408981895527542F44279927482B592BE0
S11329006A2F8EEC91E10E942102882309F05CC0B9
S1132910F401E0888189448575856685A78514E17D
S1132920C12ED12CC80CD91CFF24FE2CEE249927CF
S1132930E82AF92A03891127228933275527542F96
S11329404427E72FFF274E2B5F2B7727762F662709
S1132950BB276A2B7B2B84E1A82E8FE691E00E9493
S11329604B068FEF9FEF9F938F938091710199276F
S1132970982F8827209172013327822B932B9F93C2
S11329808F930DB71EB70C5110400FB6F8941EBFAD
S11329900FBE0DBFEDB7FEB73196AFE6B1E08CE1E7
S11329A00D9001928150E1F78BE891E00E943B0287
S11329B02DB73EB7205E3F4F0FB6F8943EBF0FBE13
S11329C02DBF80E00E94700080915B0190915A01BC
S11329D0E0910A12EE3161F0FF27EE0FFF1FE25380
S11329E0FE4E8183908380910A128F5F80930A1236
S11329F090921E0180921D018FB7F894992710922E
S1132A00A7118FBF0E942E0964C09091B1118091CB
S1132A100A01981709F45DC090930A019923D1F42F
S1132A2000911B0110911C016091C311C8010E9407
S1132A302C0A482F5527442309F44BC08FEF809369
S1132A400A0160911B0170911C01F80183850E94A9
S1132A50690B3FC08FEF80930A013BC09091A8158A
S1132A60812F8923D1F0E42FFF27EE0FFF1FE653B8
S1132A70FE4E2081318111821082812F809598230E
S1132A809093A815442349F42F513140F9F410923E
S1132A90100180E00E94700019C04F5F4830C8F4F4
S1132AA0110FDCCF80910D01E82FFF27EE0FFF1FE0
S1132AB0E653FE4E6081718141E00E94280B09C0FB
S1132AC0F90180818B3609F07FCFF3CE110F41E0FD
S1132AD0C5CFC256DF4F0FB6F894DEBF0FBECDBFD1
S1132AE0DF91CF911F910F91FF90EF90DF90CF90E6
S1132AF0BF90AF909F908F9008958091A4158F3FC1
S1132B00B1F0282F3327F901E357FE4E80818093DB
S1132B10A4158F3F11F48093B2158FEF80832F3F5C
S1132B2031F0822F0E94200E81E090E0089580E031
S1132B3090E008951F93CF93DF93CDB7DEB7E0976E
S1132B400FB6F894DEBF0FBECDBF1FB7F89440E1B7
S1132B5050E06FEF70E08DE891E10E949B1B8FEFD6
S1132B608093A4158093B21581E08EBD88E080BF68
S1132B7083E083BF8CB59DB54AE72CB53DB52817D6
S1132B80390708F44150442311F0C901F6CF92B734
S1132B9082B78917E9F32CB53DB592B782B7891787
S1132BA0E9F38CB59DB5821B930B4096A5E09695F1
S1132BB08795AA95E1F79093A6158093A51513BE62
S1132BC083B78EBD8EB580BF12BE1DBC1CBC8FEFFB
S1132BD086BF86B780937C0080B7992787709070F2
S1132BE0892BD1F7D29AD19AD09ADA9AD99AD89ACB
S1132BF015BA8FEF84BBD498DC981DBC1CBC87B776
S1132C00846087BF8EB5887F84608EBD0E947D15E9
S1132C108823E1F78FEF8093A511ECE5F1E08FEFC6
S1132C209FEF918380831282339621E0E836F20786
S1132C30C1F70E94A40260933D128FE695E1909340
S1132C401E0180931D018E98B89A8C988FEF809303
S1132C50B61110922D1210922E1210922F12109261
S1132C603012B89AD69AD59A8FB7F89499272091AA
S1132C700701309108018FBF3093BC112093BB1121
S1132C800E948E0529A73AA74BA75CA76DA77EA72C
S1132C908FA798ABDE019196FE01B99688E001906A
S1132CA00D928150E1F7DE015196FE01B19688E064
S1132CB001900D928150E1F7DE015996FE01719663
S1132CC088E001900D928150E1F7A3E3B2E1FE01A7
S1132CD0799688E001900D928150E1F78091090185
S1132CE099279093A9118093A8118FE180932812BA
S1132CF08AE180933B120E948E0529A73AA74BA72D
S1132D005CA76DA77EA78FA798ABDE019196FE0105
S1132D10B99688E001900D928150E1F7DE01119699
S1132D20FE01B19688E001900D928150E1F7DE0139
S1132D301996FE01319688E001900D928150E1F7D9
S1132D40A3E3B2E1FE01399688E001900D9281502F
S1132D50E1F7A3E3B2E1FD0137969C9180818D9365
S1132D609083319782E1E633F807B9F781E08093E5
S1132D70A2111092AC158093AA111092321280B74E
S1132D80886080BF8BE083BF86EE81BF87B7826097
S1132D9087BF0E94F1048091000190910101019686
S1132DA0AA27BB278093AD119093AE11A093AF11C6
S1132DB0B093B0110E947D158823E1F7812F9927E4
S1132DC08FBF78940E941F078FB7F894482F552718
S1132DD04BC087B7992783709070892B19F4E5E06D
S1132DE0F0E013C080B7992787709070892BD1F7D2
S1132DF081B792B7891B8C3030F082B7853F18F4C5
S1132E00E3E0F0E002C0E2E0F0E087B7887BC1F4E1
S1132E1080917D008B7FA1F46E9912C08AB190914C
S1132E209A00892B887161F48091740082FD08C036
S1132E30379B03C081E090E005C085E090E002C0CC
S1132E4080E090E025B78E1708F4E82FFF27E457B9
S1132E50FF4FE491237E2062E22BE5BF78948895AE
S1132E60F89485B78F7D85BF8091A4158F3F09F4B1
S1132E70B0CF282F3327F901E357FE4E808180938A
S1132E80A4158F3F11F48093B2158FEF80832F3FE9
S1132E9009F49FCF4FBF822F0E94200E95CF7894C4
S1132EA01F920F920FB60F9211242F923F924F92BE
S1132EB05F926F927F928F929F92AF92BF92CF92C6
S1132EC0DF92EF92FF920F931F932F933F934F93B1
S1132ED05F936F937F938F939F93AF93BF93CF939E
S1132EE0DF93EF93FF93C6B5D7B58FB7F894282E29
S1132EF00E942D039B012C1B3D0B442755272B01BE
S1132F003C01421A530A640A750A80911701909190
S1132F1018018530910521F0069709F0E0C0BFC083
S1132F2086E090E0909318018093170131E0332EEE
S1132F303092A6111092190180E00E940504E091DC
S1132F40AB11F091AC1141AABB27A72D962D852D6D
S1132F5080ABC301AA27BB2787A7872D9927AA2758
S1132F60BB2786A7E091AB11F091AC1185A588230E
S1132F7009F484C06081655077274F01860E971E3F
S1132F80F4012081E1808281A3809927AA27BB27AD
S1132F90BA2FA92F982F8827332744275527522F34
S1132FA0442733272227FF24002711278701FF24E2
S1132FB0EE242E293F29402B512BBB24CC24DD2485
S1132FC02A293B294C295D29822B932BA42BB52B31
S1132FD084199509A609B7098383292F3A2F4B2F02
S1132FE0552722839D014427552721838B2F992719
S1132FF0AA27BB278083C09824E0A40180E090E046
S11330000E945707C09AF4012081E1808281A38045
S11330109927AA27BB27BA2FA92F982F88273327A8
S113302044275527522F442733272227FF240027DC
S113303011278701FF24EE242E293F29402B512BF1
S1133040BB24CC24DD242A293B294C295D29822B4D
S1133050932BA42BB52B840D951DA61DB71D83831F
S1133060292F3A2F4B2F552722839D01442755277B
S113307021838B2F9927AA27BB278083E091AB114B
S1133080F091AC11818185FF02C030928C1183E0F4
S11330900E94E00887B78F7E87BF84997AC0109218
S11330A0A61181E00E940504E091AB11F091AC11EE
S11330B0818185FF0FC087E090E090931801809391
S11330C017010E942D0320E031E040E050E00E940F
S11330D0EA0303C080E00E94780B849B5AC080916D
S11330E01901882391F58091A611882371F511E0C7
S11330F01093A6110E94050480B32091A3152830D3
S113310098F4E091A715E20FFF27E770F070EE0F37
S1133110FF1FEE0FFF1FE15BFA4E40825182628275
S113312073822F5F2093A31510931901D093C211BA
S1133130C093C11184992DC09927B4E096958795C1
S1133140BA95E1F7182F117001C010E08091A61113
S11331508130F9F41092A6110E940504109219010D
S11331601123B9F48091C1119091C211C81BD90BDC
S11331702A9778F48091A315882319F081508093BD
S1133180A3158091AB119091AC11009711F00E949E
S113319095022FBEFF91EF91DF91CF91BF91AF9137
S11331A09F918F917F916F915F914F913F912F915B
S11331B01F910F91FF90EF90DF90CF90BF90AF9051
S11331C09F908F907F906F905F904F903F902F9043
S11331D00F900FBE0F901F90189578941F920F9226
S11331E00FB60F9211241F932F933F934F935F9326
S11331F06F937F938F939F93AF93BF93EF93FF93BB
S113320087B78F7E87BF78941FB7F8948091B211E7
S11332109091B311A091B411B091B5110097A1058B
S1133220B10509F051C080911701909118018530C2
S1133230910561F18630910530F48330910549F0B0
S1133240049781F51AC087309105F1F0089751F57C
S113325014C0869B0FC084E090E090931801809383
S113326017010E942D0327E030E040E050E00E9467
S1133270EA0318C00E948F0B15C00E94F106882330
S113328089F40E94B90B0EC080E00AC089E00E9454
S1133290D00781E00E94050483E00E94E00887E0F3
S11332A00E94780B8091120190911301019771F49F
S11332B082E090E09093130180931201DE98DE9AED
S11332C080E00E94270102C00E944A03812F9927AF
S11332D08FBFFF91EF91BF91AF919F918F917F919C
S11332E06F915F914F913F912F911F910F900FBE5E
S11332F00F901F901895ACE2B0E0E1E8F9E10C946E
S11333004E1B222E332E442E552E662E772E882EBB
S1133310992EFE013196A8E01192AA95E9F7298227
S11333203A824B825C826D827E828F829886FE0115
S11333303996B8E01192BA95E9F7A986BA86CB8690
S1133340DC86ED86FE860F87188B89819A81AB8196
S1133350BC8189A79AA7ABA7BCA77C018D018FEF7D
S11333609FEFA0E0B0E0E822F9220A231B2389A5FD
S11333709AA5ABA5BCA51D014424552489859A852D
S1133380AB85BC858DA39EA3AFA3B8A75C016D01DB
S11333908FEF9FEFA0E0B0E0A822B922CA22DB227F
S11333A08DA19EA1AFA1B8A53D0188249924C8018F
S11333B0B701A60195010E942F1B69A37AA38BA3D1
S11333C09CA3C801B701A40193010E942F1B7B0198
S11333D08C01C201B101A60195010E942F1B5B0162
S11333E06C01C201B101A40193010E942F1B3B0196
S11333F04C01EA0CFB1C0C1D1D1D89A19AA1ABA15B
S1133400BCA19D01442755272E0D3F1D401F511F70
S11334102A153B054C055D0540F480E090E0A1E0F1
S1133420B0E0680E791E8A1E9B1ECA01AA27BB271C
S1133430860D971DA81DB91D8D8F9E8FAF8FB8A3C4
S1133440A9013327222789A19AA1ABA1BCA1A0700D
S1133450B070280F391F4A1F5B1F298F3A8F4B8F7B
S11334605C8FA98CBA8CCB8CDC8CED8CFE8C0F8D94
S113347018A1FE01719698E011929A95E9F7ED8AE8
S1133480FE8A0F8B188F2D813E814F8158856DA147
S11334907EA18FA198A50E942F1B3B014C012D8575
S11334A03E854F85588969A57AA58BA59CA50E9460
S11334B02F1B2D893E894F89588D260F371F481F92
S11334C0591F260D371D481D591D2D8B3E8B4F8BC3
S11334D0588F6D887E888F88988C2A2D3B2D4C2D93
S11334E05D2D662D772D882D992DE2E1AC960C94F7
S11334F06A1BA0E1B0E0EFE7FAE10C944E1B222E28
S1133500332E442E552E662E772E882E992E002388
S113351009F466C088E0FE01319611928A95E9F7B4
S113352029833A834B835C836D837E838F82988760
S1133530E0E2E01B1E16CCF52D813E814F815885BB
S1133540602F772767FD7095DA01C901062E04C044
S1133550B695A795979587950A94D2F78D879E87F8
S1133560AF87B88B04C0220F331F441F551FEA9541
S1133570D2F789819A81AB81BC8104C0B695A795A5
S1133580979587956A95D2F7282B392B4A2B5B2B75
S113359029873A874B875C8729843A844B845C84E7
S11335A06D847E848F8498881BC01D861E861F862A
S11335B0188A2E2F332727FD3095309521953F4FBC
S11335C08D819E81AF81B88504C0B695A7959795E6
S11335D087952A95D2F789879A87AB87BC87DCCFF2
S11335E0222D332D442D552D662D772D882D992D83
S11335F0E2E160960C946A1B991B79E004C0991F60
S1133600961708F0961B881F7A95C9F78095089538
S1133610AA1BBB1B51E107C0AA1FBB1FA617B707F4
S113362010F0A61BB70B881F991F5A95A9F7809510
S11336309095BC01CD01089597FB092E07260AD069
S113364077FD04D0E5DF06D000201AF4709561956B
S11336507F4F0895F6F7909581959F4F0895629F47
S1133660D001739FF001829FE00DF11D649FE00D76
S1133670F11D929FF00D839FF00D749FF00D659FD7
S1133680F00D9927729FB00DE11DF91F639FB00DD6
S1133690E11DF91FBD01CF01112408952F923F921E
S11336A04F925F926F927F928F929F92AF92BF924E
S11336B0CF92DF92EF92FF920F931F93CF93DF93FA
S11336C0CDB7DEB7CA1BDB0B0FB6F894DEBF0FBE57
S11336D0CDBF09942A88398848885F846E847D84A4
S11336E08C849B84AA84B984C884DF80EE80FD80A6
S11336F00C811B81AA81B981CE0FD11D0FB6F8941C
S1133700DEBF0FBECDBFED010895FB01DC0104C097
S11337108D910190801921F441505040C8F7881BC5
S1133720990B0895FB01DC0102C001900D924150F8
S11337305040D8F70895DC0101C06D9341505040CA
S1093740E0F70895FFCF3D
S1113746010001FFFFFFFF010022FFFFFF0152
S9030000FC
